:0A0000000C9486000C94B2000C94DE
:10000A0000000C9400000C9400000C9400000C9466
:10001A0000000C9400000C9400000C9400000C9456
:10002A0000000C945E010C9400000C9400000C94E7
:10003A0000000C9400000C9400000C9400000C9436
:10004A0000000C9400000C94000000000C000A0050
:10005A000A0054656D70203D2025352E32662743EF
:10006A000074696D65203A20253032643A253032B1
:10007A00643A25303264005455524E494E47204C5A
:10008A0045465420005455524E494E47205249473E
:10009A004854002020474F2046524F4E54202020DB
:1000AA00002020474F204241434B202020200000BF
:1000BA0080C02D4E414E000001002D4E414E004998
:1000CA004E46000001000200540002000C005600D7
:1000DA0001009802580001009A025A000E006002BC
:1000EA0081000E006E028F000E007C029D000E0041
:1000FA008A02AB000200B402BA000100BB02C200CD
:10010A000000F894EE27ECBBF1E0F5BFE5BF8DE007
:10011A00A2E0BB27ED938A95E9F780E098E0A0E694
:10012A00ED930197E9F7EEECF0E085919591009750
:10013A0061F0A591B59105901590BF01F001059068
:10014A000D920197E1F7FB01F0CFEFE5EDBFE8E093
:10015A00EEBFC0E6D2E00C94DB01EA93EFB7EA9374
:10016A0020FC05C0E0E0EABDE8BD689401C0E8945F
:10017A0020F8E991EFBFE9911895AA93E881E7B9C8
:10018A008BE18A95F1F7369A349BFECF349AE4B123
:10019A00F5B10C940303A1E0F0DF2F01D201EFE7E0
:1001AA00F0E00E947F0C2F0131962F01E2E0F0E08F
:1001BA00E415F50514F0C49A01C0C498E0E0F0E033
:1001CA0060E070E40E94F10CF2010E94ED08DF0188
:1001DA00CB010E945B04DF01CB010E94F2080E945E
:1001EA00F7080E94C80AE5BB0895A0E0C6DFA0EBA5
:1001FA00B2E0662777270E94010B0E94DD0C0E945D
:10020A00FC08E0E0F0E060EA70E40E940509E0E042
:10021A00F0E060E874E40E94D90B0E940A090E9487
:10022A00FC08E0E0F0E068EC72E40E948B0B0E94AC
:10023A000A09E0E0EA93A1E00E941309ECE5F0E084
:10024A00FA93EA93E091B002F091B1026091B2029E
:10025A007091B3020E94F10C84E00E94D3072896A1
:10026A00ACE9B2E00E94C4020E94FC08E0E0F0E0BF
:10027A006CE872E40E941E0C09F008F403C00E94A4
:10028A001A0908F002C0C39A0CC00E941A0909F0A0
:10029A0008F406C0C39AC298E0E0EABDE8BD02C00D
:1002AA00C398C29A08959098919A0895909A9198AD
:1002BA0008950A921A92FA926A937A938A939A936F
:1002CA00AA93BA93EA93FA93EFB7EA93E3E8E2BF01
:1002DA00F30131963F01E8EEF3E0E615F7050CF07D
:1002EA0057C066247724F40131964F01EBE3F0E01E
:1002FA00E815F905B4F488249924F50131965F01CB
:10030A00EBE3F0E0EA15FB0564F4AA24BB24F6014A
:10031A0031966F01E7E1F0E0EC15FD0514F4CC2409
:10032A00DD24E0E0EA93A0E00E941309EBE6F0E0A6
:10033A00FA93EA93F6010E942209F5010E94220922
:10034A00F4010E9422098CE00E94D3076096ACE96E
:10035A00B2E015D120DF49DFCD9B05C00E942709F5
:10036A00A0E6B2E014C0CB9B05C00E942709AEE606
:10037A00B2E00DC0CC9B0CC0CA9B05C00E942709E5
:10038A00ACE7B2E004C00E942709AAE8B2E0F7D0BD
:10039A00E991EFBFF991E991B991A991999189915F
:1003AA0079916991F990199009901895EFEFE1BB4D
:1003BA00E4BBECEFE7BB8A98929AEBB7E064EBBF39
:1003CA00E1E0E5BFE0E0E4BFE0E4EABFE3E0E3BF89
:1003DA00E3E8E2BFE0E0ECBFE1EAEFBDE3E0EEBD57
:1003EA00E0E0EDBDECBDE7BDE6BDEBBDEAE1EABD8F
:1003FA00E0E0E9BDEAE1E8BDE1E0E9BFE0E0E7B954
:10040A00E3E8E6B9E0E0E0BFA4E1CAD07894CB9B88
:10041A000BC00E942C09CB9B06C0E0E0EABDE0912C
:10042A009A02E8BDF8CF39C0CC9B2BC0E091980264
:10043A00EABDE0919A02E8BDCC9B22C0CA9902C0EB
:10044A0032DF01C033DFB0990CC020FC0AC0EAB524
:10045A00EF5FEABDE8B5EF5FE8BDAAE0B0E00E9451
:10046A006E0AB1990CC020FC0AC0EAB5E150EABD97
:10047A00E8B5E150E8BDAAE0B0E00E946E0ADCCF20
:10048A000CC0CD9B0AC00E942C09CD9B06C0E091EE
:10049A009802EABDE0E0E8BDF8CFB9CFFFCFAA9352
:1004AA00E881E07111F0DE9A01C0DE98E881E0721D
:1004BA0011F0DF9A01C0DF98E881E07411F0969A92
:1004CA0001C09698E881E07811F0979A01C0979850
:1004DA008DE08A95F1F7C79A8DE08A95F1F7C7986A
:1004EA008DE08A95F1F78AC0AA93A881D8DFE881BE
:1004FA00E295E883A881D3DF85E88A95F1F77EC083
:10050A00AA93E881F0E0EC54FD4FE081A981AE0F97
:10051A00EBDFE981E093B802E881E093B902229621
:10052A000895A2E00E943909ACE0DEDFA1E00E9452
:10053A003909E0E0E093B902E093B8020895AA937A
:10054A00A881AA3031F0E091BA02A091B802AE17A0
:10055A0060F0E0E0EA93A091B902AF5FA093B9021C
:10056A00CFDFA881AA3009F449C0E091B802EF5F51
:10057A00E093B802C59AA881B7DFC5983FC0BA937D
:10058A00AA931A93A981BA81ED91A983BA831E2FDE
:10059A00E03019F0A12FD3DFF5CF18812396089503
:1005AA00AA93D69AD79A8E9A8F9ABF9ABD9ABE9ACA
:1005BA00C798C598C698E881E093BA02E058E093D4
:1005CA00B602E881E054E093B702A4E1B0E00E94E9
:1005DA006E0A0E943F090E943F090E943F09A0E259
:1005EA005EDF88EC90E00197F1F7A8E27DDFA4E0F6
:1005FA007BDFA5E879DFA6E077DF93DF2196089510
:10060A000E94F60C7B816A81F981E88177FB770F7A
:10061A0067FD7160972F9E5781F078F0983190F4BA
:10062A00AA27BB27882708948795B795A7959A95EF
:10063A00D1F7EA23FB23682305C0E8947727EE273E
:10064A00FF2766276F77769508F4606877F9A9918E
:10065A00B99189919991EA17FB076807790797FB7E
:10066A0008950E94F60C0E94E70C0E9405030E945E
:10067A00EC0C19F40E94470905C0E6F70E944709E5
:10068A000E944A09249608950E94F60C24971A9308
:10069A000A930E9451090E940C0D2CF0EFEFFFEF14
:1006AA006FE77FEF71C00E9456090E94F10CADB747
:1006BA00BEB711971F930F930E94780A0F911F914B
:1006CA000E945B090E945109E3EFF4E065E37FE3CE
:1006DA000E941E0C40F40E9460090E943B0B0E947B
:1006EA005B09015010400E9456090E944A097F93F3
:1006FA006F93FF93EF930E945609A0E0B0E080E861
:10070A009FE30E943B0BAF91BF918F919F910E94F3
:10071A00D90B0E945B090E9460090E946209A6E245
:10072A00B2E485E69FE30E940509EEE4F1E164E59F
:10073A0070E40E94F7080E9451090E948B0B7F9374
:10074A006F93FF93EF930E946909ADE4B1E184EDE1
:10075A009FE30E94340BAF91BF918F919F910E94AA
:10076A00D90B7F936F93FF93EF93F8010E94ED08E3
:10077A00A8E1B2E781E39FE30E948B0BAF91BF919F
:10078A008F919F910E943B0B198108812A960895A7
:10079A000E94F60C28971A930A930E946E09E0E5C4
:1007AA00FCEA6EEA72EC0E941E0C18F40E947309AD
:1007BA0079C00E9478090E94080D19F40E94F20873
:1007CA0071C00E946E09E8E1F2E761EB72E40E94EF
:1007DA001E0C09F008F405C0EFEFFFEF6FE77FE7A3
:1007EA0061C00E946E09EBE3FAEA68EB7FE30E94BC
:1007FA008B0B0E947D090E946E0933DF0E94CA0A90
:10080A008F010E946E090E94ED080E94F708DF011D
:10081A00CB01E0E0F0E060E07FE30E94F7080E948D
:10082A005B090E9460090E946209ADE6BCE48CE69D
:10083A009DE30E948B0BA6EAB3EE86EE90E40E943B
:10084A003B0B0E9451090E948B0B0E945B090E947C
:10085A006909A8E2BDE886EA91E40E943B0B0E947E
:10086A0082090E9456090E9487090E943B0BA3EF46
:10087A00B4E085EB9FE30E948B0B7F936F93FF930A
:10088A00EF930E9451090E9469090E94340BAF91AB
:10089A00BF918F919F910E94D90B0E94F10CD801B0
:1008AA000E94890A198108812E9608950E94F60CE1
:1008BA0024970E948C090E94080D19F40E9473095A
:1008CA0043C0A885B9858A859B850E940C0D84F44E
:1008DA000E9491090E94080D19F40E94F20834C07E
:1008EA00A885B9858A859B850E94960951DF2CC007
:1008FA000E949109DE010E94CA0A0E94DD0C0E9430
:10090A0047090E94010BDF01CB010E9491090E9455
:10091A00120D19F00E94730917C00E948C090E94D7
:10092A00950ADF01CB010E94960932DFE887F98731
:10093A006A877B87E881E17019F40E948C0904C0F8
:10094A000E948C090E94950A2C960895BA93AA933C
:10095A001A930A93AA81BB8112960E94D30C3097EC
:10096A0029F1AA81BB8114960E94D30C8F0130977A
:10097A0061F00230E0E01E0780F0F80131978F0144
:10098A00AA81BB811496ED93FC93AA81BB8112962E
:10099A000E949D093197AC81A083AA81BB810E94E4
:1009AA00D30CFF2312F00E949D0906C0AA81BB81C5
:1009BA00EFEFFFEFED93FC931981088125960895D7
:1009CA000E94A309E0E8EA83EFE3EB830E94190D92
:1009DA00EE85FF85EF3FAFEFFA0749F4E885F98521
:1009EA00FA93EA93ACEBB0E00E94C708B9C0EF3FB4
:1009FA00AFE7FA0749F4E885F985FA93EA93ADEB8C
:100A0A00B0E00E94C708ACC0AB85A73010F0E6E0A2
:100A1A00EB871B85E12F1150E03019F00E94AA09DB
:100A2A00F9CFEC85FD856E857F850E94080D21F43E
:100A3A0030E00E94AA092DC03B850E94B90909F03D
:100A4A0008F40BC00E94AA090E94B90928F00E9462
:100A5A00C1090E94C609F8CF0DC00E94B90940F425
:100A6A000E94C1090E94D2090E94D9093150F5CFCA
:100A7A000E94AA09EC85FD856E857F850E94DE09A4
:100A8A000E94D9090E94B90920F00E94C1090E9456
:100A9A00C60910E0EB85E117B8F1AC81BD818E8102
:100AAA009F810E94E5090E94DE09DF01CB010E94B5
:100ABA003603EC83FD836E837F830E9491090E9433
:100ACA00C1090E94D90B0E94C80A0E2F0E94EC0984
:100ADA000E94F309FF27662777270E94010BAC8142
:100AEA00BD818E819F810E948B0B0E94C1090E9449
:100AFA00F7080E94D909E12F1F5FE03059F60E94DA
:100B0A00EC09EEE2EC93C6CF0E94F8093197AA8568
:100B1A00A08330302CF43195A885B985EDE203C065
:100B2A00A885B985EBE2EC930E94F8090E94F809BE
:100B3A003197BF01A32FEAE00E94670CE05DDB0159
:100B4A00EC930E94F8093197BF01A32FEAE00E94B3
:100B5A00A90CE05DDB01EC93A885B985E0E0EC9394
:100B6A000E94200D60960895BA93AA93EF97619711
:100B7A000E94170D10E0FE01E85AFF4F0190F08124
:100B8A00E02DE887F987FE01EA5AFF4F0190F081CC
:100B9A00E02DEE83FF83AE81BF81E0E0F0E0ED93CC
:100BAA00FC93DE01A45ABF4F0E949D093197E4913C
:100BBA002E2FE03009F4E9C1E12FE03039F4253273
:100BCA0011F411E002C00E94FE09DEC1E130C1F455
:100BDA00253219F40E94FE09D6C112E0E0E0ED8B3D
:100BEA0000E02D3211F401E0CFC12B3219F4EBE20F
:100BFA00ED8BCAC1203219F4E0E2ED8BC5C102C007
:100C0A00E23039F450E013E0203311F40068BCC13B
:100C1A0002C0E33091F4203310F02A3308F007C001
:100C2A00AAE05A9F502DE22FE0535E0FADC140E07B
:100C3A002E3211F414E0A8C10FC0E43099F4203325
:100C4A0010F02A3308F008C00062AAE04A9F402D3B
:100C5A00E22FE0534E0F98C12C3619F4026015E0CA
:100C6A0093C103C0E53009F08FC1E22FE33659F48E
:100C7A000E94050A0E940C0A0E94050AA481AA93EE
:100C8A000E94130A80C1E53411F0E53609F403C065
:100C9A00E63609F048C0FE017696EE87FF870E9485
:100CAA00190A0E94D70C0E947D090E94200AAD856C
:100CBA00AA2332F0AD89AB3259F0A03281F017C0C5
:100CCA000E9478090E94950A0E947D09EDE2ED8B47
:100CDA0007FF05C0ED89EA930E94130A08C0EE8552
:100CEA00FF853196EE87FF873197AD89A08305FF8F
:100CFA0046E0263651F40E9478090E94F10C4A9384
:100D0A00AB89BC890E94070809C00E9478090E9421
:100D1A00F10C4A932A93AC89BD8952DEFE0176967C
:100D2A000E94220A1EC0E33739F40E94200A0E9458
:100D3A002A0A0E94220A0EC0E037C1F40E94200A41
:100D4A000E942A0AEE87FF87AE85BF850E94E008C7
:100D5A001E2F08600F77403011F0411708F001C0CC
:100D6A00142F40E0E0E0EC8B30E06DC0E43611F087
:100D7A00E93611F4046002C0E537A1F4EAE0EC8B2D
:100D8A0001FF08C0E0E0FAEC6AE97BE30E942F0A5F
:100D9A001AE022C0E0E1F7E260E070E00E942F0A68
:100DAA0015E01AC0E83511F4086003C0E83709F005
:100DBA00EAC0E0E1EC8B01FF08C0E0E0F0E060E0AF
:100DCA0070E10E942F0A18E007C0E0E0F0E160E05D
:100DDA0070E00E942F0A14E0403011F00F7701C032
:100DEA0041E001FF08C00E94200A0E94190A1496D5
:100DFA000E94D70C0FC002FF07C00E94200A0E945F
:100E0A002A0A0E94540C06C00E94200A0E942A0A3A
:100E1A0066277727EA87FB876C877D8702FF12C0E0
:100E2A00AD85AA2342F40E9478090E94460C0E94CA
:100E3A007D09EDE2ED8BED89E03019F01F5F4F5F20
:100E4A0001C00B7F342F00FD14C0151710F435179D
:100E5A0008F00FC007FF08C002FF04C00B7F2D89EE
:100E6A00115001C020E301C020E20E94FE09515046
:100E7A00ECCF141790F4006102FF06C00E94340AF6
:100E8A0009F0515011504150E0E3EA930E94130ACD
:100E9A00503009F051504150ECCF312FEC89E030FD
:100EAA00B9F43030A1F003FF06C0EE85FF85259125
:100EBA00EE87FF8705C0AE85BF852D91AE87BF87B8
:100ECA000E94FE09503009F051503150EACF51C00A
:100EDA000E94460A0E94840C2E2F2A3030F003FF0B
:100EEA0002C0295C01C0295A01C0205D04FD21C04D
:100EFA00213360F4A889B9898A899B89A130E0E005
:100F0A00BE07E0E08E07E0E09E0709F40BC0431736
:100F1A0040F4531710F000FF01C010C020E207FF91
:100F2A0008C020E3006102FF04C00E94340A09F0ED
:100F3A0051500E94FE09503009F0515031500E9420
:100F4A00460A0E94B50C0E947D09EC89A889B989D4
:100F5A008A899B89FF27662777270E94840C0E942B
:100F6A002F0AE889F9896A897B890E94080D09F0A4
:100F7A00AFCF00FF08C0503031F05150E0E2EA93A1
:100F8A000E94130AF8CF10E00CCEAE81BF810E94F6
:100F9A00D30C0E941E0DEF966F960895FF92F82EBD
:100FAA0026970E94190D0E944B0A309719F4EFEF09
:100FBA00FFEF23C0DE0116960E943E0C8D010E94AF
:100FCA004B0AEE83FF83E0E0E887E987DE011A96A1
:100FDA000E943E0C0E94D30CFA93EA931A930A9346
:100FEA00EBEAF4E0FA93EA93DE011A96BDDD9F017B
:100FFA00AE81BF81E0E0EC93F9010E94200D2A96B0
:10100A00FF9008950E94A309E0E0EA83EFE3EB83EF
:10101A001A930A93EB85FC85EF3FAFEFFA0739F491
:10102A000E94520AA4ECB0E00E94C708A7C0EF3F92
:10103A00AFE7FA0739F40E94520AA5ECB0E00E9421
:10104A00C7089CC0AC85AA2362F4E985FA856B853A
:10105A007C850E94950A0E94570A0E945C0AEDE26A
:10106A00EC93A885A73010F0E6E0E8871885E12F11
:10107A001150E03039F00E9487090E94E5090E9468
:10108A008209F5CF0E94630A0E943B0B0E94570A0D
:10109A0010E00E94F2080E9482090E94630A0E94DC
:1010AA001E0C88F00E9487090E94D2090E948209B8
:1010BA001F5F173238F00E94520AA9ECB0E00E9472
:1010CA00C7085CC0EACF103029F40E945C0AE0E34A
:1010DA00EC9329C0E12F1150E03029F10E948709D1
:1010EA000E94E5090E94DE09DF01CB010E94360356
:1010FA000E9482090E94630A0E94D90B0E94C80AB0
:10110A000E2F0E945C0A0E94F309F0E00E948709F0
:10111A000E94ED080E948B0B0E94690A0E94F70840
:10112A000E94570AD7CFE885E03021F10E945C0A75
:10113A00EEE2EC93E885E150E887EF5FD9F00E9490
:10114A00690A0E94D2090E94570AE985FA856B85C5
:10115A007C850E94C80A0E2F0E945C0A0E94F3092D
:10116A00F0E00E94690A0E94ED080E94F7080E94B6
:10117A00570AE0CFAE81BF81E0E0EC931981088184
:10118A002D960895BA93AA93E991F991A991B991E3
:10119A00CD0105900D920020E1F7FC010895BA9364
:1011AA00AA93A991B991EE27FF276D91662311F0B1
:1011BA003196FBCF0895BA93AA93AA27BB27E99140
:1011CA00F9910590002011F01196FBCFFD010895C9
:1011DA000E94540C0E94010B0895E0E0F0E060E8E0
:1011EA007FE308950E94FB0C0E94340B0895A0919E
:1011FA00B002B091B1028091B2029091B302089507
:10120A000E948B0BDF01CB010895E093B002F093AB
:10121A00B1026093B2027093B30208950E948502EC
:10122A00ECE9F2E0FA93EA930895E1DFE0E0F0E016
:10123A0064EB72E40E941E0C08950E94540C0E94F2
:10124A00F10C0895E0E0EA93A3E00C948502EAB574
:10125A00F0E0E0939802F0939902E8B5F0E0E093A9
:10126A009A02F0939B0208950E947902A3E0B0E0EB
:10127A000C946E0AA0E30E94540288EC90E0019755
:10128A00F1F708950E94E20C0895A0E0B0E080E82A
:10129A009FE30E94340B0895AE81BF8188859985AA
:1012AA000895EE81FF81688579850895EE83FF832D
:1012BA00688779870895F5DFEFCF0E948B0BEA8361
:1012CA00FB836C837D830895EA81FB816C817D8138
:1012DA000895AA85BB858C859D850895E0E0F0E098
:1012EA0060E070E00895EA85FB856C857D85089548
:1012FA00EA87FB876C877D870895EA83FB836C8383
:10130A007D830895AA81BB818C819D810895E8859A
:10131A00F9856A857B850895EC81FD816E817F81DF
:10132A0008950E944903AC81BD818E819F8168CF57
:10133A00ED91FD913196FE93EE930895BA93AA9397
:10134A002497E0E0E883E9830895AC81BD818E812A
:10135A009F81E0E0F0E060E271E40E948B0BEC8395
:10136A00FD836E837F830895D7DFAC85BD858E8527
:10137A009F850E941E0C0895AC85BD858E859F852C
:10138A000895EDECFCEC6CEC7DE30E948B0BEC8792
:10139A00FD876E877F873F5F0895E0E0F0E060E2B7
:1013AA0071E40E948B0B0895EC87FD876E877F8717
:1013BA000895A0E0B0E080E09FE30E943B0B08950F
:1013CA00EDECFCEC6CEC7DE30E948B0B0895A88598
:1013DA00B9851196A887B98711970895E02FE05D1E
:1013EA00EC93E02F0895E885F9853196E887F98727
:1013FA0008952A93AF81B885E985FA8509950895F4
:10140A00FE01E65AFF4F0190F081E02D08953497CE
:10141A00DE01A65ABF4FED93FC930895AF81B885BC
:10142A00E985FA8509950895DE01A65ABF4F0D9000
:10143A00BC91A02D0895E4DFEACFEE87FF87AE8541
:10144A00BF850E94D4081E2F0895EEDF14960E94CD
:10145A00D30C0895E88BF98B6A8B7B8B08950B7FED
:10146A00ED89EA93DE01A95ABF4F0D90BC91A02DD8
:10147A00FE01E75AFF4F0190F081E02D09955030A7
:10148A000895E889F9896A897B8923CFDE011C9648
:10149A000E943E0C0E94D30C0895EE81FF81FA93BC
:1014AA00EA930895E987FA876B877C870895AE8166
:1014BA00BF811196AE83BF831197089505DFA98571
:1014CA00BA858B859C850895A985BA858B859C8567
:1014DA000895109639F080ED97E00197F1F7A895F5
:1014EA001197C9F70895E991F9916991799177FB73
:1014FA00660F771F88277E57880B7D938C937EE72C
:10150A00769567956EF00895E991F99169917991C7
:10151A0077FB660F771F7A0F769567950EF0089519
:10152A0030976040704009F070580895552342F48E
:10153A00503811F4E0FF04C03196691F791F6BF02F
:10154A0050E8572711F45F93CFC05F3F31F0660F21
:10155A00000C57956795752F08955F9300200AF040
:10156A00CFC0C8C050E8192E1522880F991F952799
:10157A00550F879550E8072E0522660F771F7527A6
:10158A00550F67950895689401C0E8945F93F2DF58
:10159A00703818F07F3F08F4A7C056E1571BAAF429
:1015AA00519558300EF4593030F0EFEFFFEF6FEFEE
:1015BA007FE777F91AC077275523B9F0EE0FFF1F97
:1015CA00661F771F5A95D1F710C07727583028F031
:1015DA00EF2FF62F672F5850F9CF552331F0769514
:1015EA006795F795E7955A95D1F700200AF449D1FE
:1015FA005F910895689401C0E89430976040704004
:10160A00B1F0002426F0772312F400943AD1172E71
:10161A007EE1112032F07A95EE0FFF1F661F111C32
:10162A00F9CFEF2FF62F612D5F938ADF5F9108952F
:10163A004F93AF01FD01DA01AB01BC01CA01402D94
:10164A00012C142E4F910895EA0FFB1F681F08956D
:10165A00E095F0956095EF5FFF4F6F4F08955F93A8
:10166A0081DF903871F150E8152604C05F937ADF64
:10167A00903839F1703821F1572F591B2BF112F498
:10168A00D7DFFACF583118F0AA27BB278827583056
:10169A0028F0AB2FB82F88275850F9CF552329F0B7
:1016AA008695B795A7955A95D9F7502D512572F079
:1016BA00CBDF38F46795F795E795739513F420C057
:1016CA00B7DF3EDF5F910895D8F7FBCFEA1BFB0B2C
:1016DA00680B51F010F40094BBDF662392F3EE0F0F
:1016EA00FF1F661F7A95CBF7EE27FF276627772716
:1016FA005F910895EFEFFFEF6FE77FEF5F91089536
:10170A00EFEFFFEF6FE77FE75F9108955F932ADFBF
:10171A00703851F3903841F301240894791F23F467
:10172A001CF300203AF3ECCF0F921F932F933F93B1
:10173A004F93112722279927689FA0018F9F302D49
:10174A00410D591F6B9F300D411D591F8E9F27D088
:10175A00BF9F25D06A9F23D0BE9F1DD0AF9F1BD0AD
:10176A00AE9F110D291F391F491F591FE32FF42F4F
:10177A00652F522F4F913F912F911F910F90662302
:10178A002AF0550FEE1FFF1F661F02C073954BF21A
:10179A00CDDE5F910895100D211D391F02C0200D65
:1017AA00311D491F591F08955F93DCDE703821F4FB
:1017BA0011200AF49FCFA4CF903809F495CF0124C1
:1017CA000894970B1BF4D4F30020F3CF792F1F93BF
:1017DA002F933F934F93112411272227332744270E
:1017EA00552790E2AE17BF078607410730F0AE1BB8
:1017FA00BF0B860B410B089401C08894551F221F0A
:10180A00331F111CAA1FBB1F881F441F9A9551F72B
:10181A00F901612D4F913F912F911F91662332F06B
:10182A00550FEE1FFF1F661F7A9543F27FDE5F9109
:10183A00089599239AF0772342F0971748F029F4EC
:10184A00AE17BF07860720F031F098948894089560
:10185A009894089408951894889408957723C2F761
:10186A00971798F3A9F7EA17FB07680788F399F31C
:10187A00ECCF0024AF0DB01D0895F195E195F0402D
:10188A000895F09560957095E195FF4F6F4F7F4FE2
:10189A000895FE2FFF0FFF0B6F2F7F2F08956F2FD5
:1018AA00660F660B762F0895002498E0AA0F001C95
:1018BA000E1A10F40E0E01C0A1609A95B9F7EA2F1C
:1018CA00A02D089551D0F0DF0EF4E195089500247B
:1018DA00112490E1AA0FBB1F001C111C0E1A1F0A2B
:1018EA0018F40E0E1F1E01C0A1609A9599F7FD010A
:1018FA00D001089545D0EBDF0EF4BFDF08953F9382
:10190A004F935F93002411244427552730E2AA0FEE
:10191A00BB1F881F991F001C111C441F551F0E1A3C
:10192A001F0A460B570B28F40E0E1F1E461F571F81
:10193A0001C0A1603A9559F7FD01BC01D001CA0165
:10194A005F914F913F910895E894A7FF02C0A19536
:10195A006894E7FDE195A8DFEA2F0EF4E195089572
:10196A00CEDFFD01BC010895E894E7FF02C0E195CE
:10197A006894A7FF04C0A19500F8039400FA08959B
:10198A00E894F7FF02C079DF6894B7FF06C0A09514
:10199A00B095119600F8039400FA0895ED91FC9120
:1019AA0011970895ED91FD916D917C91139708958A
:1019BA00ED93FD936D937C930895E881F9816A8193
:1019CA007B810895A881B9818A819B810895E883E2
:1019DA00F9836A837B8308957A936A93FA93EA93E5
:1019EA0008959A938A93BA93AA930895182E862FE4
:1019FA00612D192E972F712D1B2EBF2FF12D1A2E07
:101A0A00AE2FE12D0895309760407040089500246C
:101A1A000A160B06080609060895EA17FB0768075F
:101A2A00790708955A934A933A932A931A930A93F1
:101A3A0008955D814C813B812A811981088108952D
:00000001FF
